{
  "_format": "hh-sol-artifact-1",
  "contractName": "QuoterV2",
  "sourceName": "contracts/lens/QuoterV2.sol",
  "abi": [
    {
      "inputs": [
        {
          "internalType": "address",
          "name": "_factory",
          "type": "address"
        },
        {
          "internalType": "address",
          "name": "_WETH9",
          "type": "address"
        }
      ],
      "stateMutability": "nonpayable",
      "type": "constructor"
    },
    {
      "inputs": [],
      "name": "WETH9",
      "outputs": [
        {
          "internalType": "address",
          "name": "",
          "type": "address"
        }
      ],
      "stateMutability": "view",
      "type": "function"
    },
    {
      "inputs": [],
      "name": "factory",
      "outputs": [
        {
          "internalType": "address",
          "name": "",
          "type": "address"
        }
      ],
      "stateMutability": "view",
      "type": "function"
    },
    {
      "inputs": [
        {
          "internalType": "address",
          "name": "tokenA",
          "type": "address"
        },
        {
          "internalType": "address",
          "name": "tokenB",
          "type": "address"
        },
        {
          "internalType": "uint24",
          "name": "fee",
          "type": "uint24"
        }
      ],
      "name": "getPool",
      "outputs": [
        {
          "internalType": "contract IHyperswapV3Pool",
          "name": "",
          "type": "address"
        }
      ],
      "stateMutability": "view",
      "type": "function"
    },
    {
      "inputs": [
        {
          "internalType": "int256",
          "name": "amount0Delta",
          "type": "int256"
        },
        {
          "internalType": "int256",
          "name": "amount1Delta",
          "type": "int256"
        },
        {
          "internalType": "bytes",
          "name": "path",
          "type": "bytes"
        }
      ],
      "name": "hyperswapV3SwapCallback",
      "outputs": [],
      "stateMutability": "view",
      "type": "function"
    },
    {
      "inputs": [
        {
          "internalType": "bytes",
          "name": "path",
          "type": "bytes"
        },
        {
          "internalType": "uint256",
          "name": "amountIn",
          "type": "uint256"
        }
      ],
      "name": "quoteExactInput",
      "outputs": [
        {
          "internalType": "uint256",
          "name": "amountOut",
          "type": "uint256"
        },
        {
          "internalType": "uint160[]",
          "name": "sqrtPriceX96AfterList",
          "type": "uint160[]"
        },
        {
          "internalType": "uint32[]",
          "name": "initializedTicksCrossedList",
          "type": "uint32[]"
        },
        {
          "internalType": "uint256",
          "name": "gasEstimate",
          "type": "uint256"
        }
      ],
      "stateMutability": "nonpayable",
      "type": "function"
    },
    {
      "inputs": [
        {
          "components": [
            {
              "internalType": "address",
              "name": "tokenIn",
              "type": "address"
            },
            {
              "internalType": "address",
              "name": "tokenOut",
              "type": "address"
            },
            {
              "internalType": "uint256",
              "name": "amountIn",
              "type": "uint256"
            },
            {
              "internalType": "uint24",
              "name": "fee",
              "type": "uint24"
            },
            {
              "internalType": "uint160",
              "name": "sqrtPriceLimitX96",
              "type": "uint160"
            }
          ],
          "internalType": "struct IQuoterV2.QuoteExactInputSingleParams",
          "name": "params",
          "type": "tuple"
        }
      ],
      "name": "quoteExactInputSingle",
      "outputs": [
        {
          "internalType": "uint256",
          "name": "amountOut",
          "type": "uint256"
        },
        {
          "internalType": "uint160",
          "name": "sqrtPriceX96After",
          "type": "uint160"
        },
        {
          "internalType": "uint32",
          "name": "initializedTicksCrossed",
          "type": "uint32"
        },
        {
          "internalType": "uint256",
          "name": "gasEstimate",
          "type": "uint256"
        }
      ],
      "stateMutability": "nonpayable",
      "type": "function"
    },
    {
      "inputs": [
        {
          "internalType": "bytes",
          "name": "path",
          "type": "bytes"
        },
        {
          "internalType": "uint256",
          "name": "amountOut",
          "type": "uint256"
        }
      ],
      "name": "quoteExactOutput",
      "outputs": [
        {
          "internalType": "uint256",
          "name": "amountIn",
          "type": "uint256"
        },
        {
          "internalType": "uint160[]",
          "name": "sqrtPriceX96AfterList",
          "type": "uint160[]"
        },
        {
          "internalType": "uint32[]",
          "name": "initializedTicksCrossedList",
          "type": "uint32[]"
        },
        {
          "internalType": "uint256",
          "name": "gasEstimate",
          "type": "uint256"
        }
      ],
      "stateMutability": "nonpayable",
      "type": "function"
    },
    {
      "inputs": [
        {
          "components": [
            {
              "internalType": "address",
              "name": "tokenIn",
              "type": "address"
            },
            {
              "internalType": "address",
              "name": "tokenOut",
              "type": "address"
            },
            {
              "internalType": "uint256",
              "name": "amount",
              "type": "uint256"
            },
            {
              "internalType": "uint24",
              "name": "fee",
              "type": "uint24"
            },
            {
              "internalType": "uint160",
              "name": "sqrtPriceLimitX96",
              "type": "uint160"
            }
          ],
          "internalType": "struct IQuoterV2.QuoteExactOutputSingleParams",
          "name": "params",
          "type": "tuple"
        }
      ],
      "name": "quoteExactOutputSingle",
      "outputs": [
        {
          "internalType": "uint256",
          "name": "amountIn",
          "type": "uint256"
        },
        {
          "internalType": "uint160",
          "name": "sqrtPriceX96After",
          "type": "uint160"
        },
        {
          "internalType": "uint32",
          "name": "initializedTicksCrossed",
          "type": "uint32"
        },
        {
          "internalType": "uint256",
          "name": "gasEstimate",
          "type": "uint256"
        }
      ],
      "stateMutability": "nonpayable",
      "type": "function"
    }
  ],
  "bytecode": "0x60c06040523480156200001157600080fd5b506040516200218838038062002188833981016040819052620000349162000070565b6001600160601b0319606092831b8116608052911b1660a052620000a7565b80516001600160a01b03811681146200006b57600080fd5b919050565b6000806040838503121562000083578182fd5b6200008e8362000053565b91506200009e6020840162000053565b90509250929050565b60805160601c60a05160601c6120ad620000db6000398061037d52508061014e52806105d352806109b952506120ad6000f3fe608060405234801561001057600080fd5b50600436106100885760003560e01c8063c45a01551161005b578063c45a015514610104578063c6a5026a1461010c578063cdca17531461011f578063fa85398b1461013257610088565b80631698ee821461008d5780632f80bb1d146100b65780634aa4a4fc146100d9578063bd21704a146100e1575b600080fd5b6100a061009b366004611b4a565b610147565b6040516100ad9190611e4b565b60405180910390f35b6100c96100c4366004611b90565b610185565b6040516100ad9493929190611f08565b6100a061037b565b6100f46100ef366004611cae565b61039f565b6040516100ad9493929190611fb0565b6100a06105d1565b6100f461011a366004611cae565b6105f5565b6100c961012d366004611b90565b6107b0565b610145610140366004611bf6565b610988565b005b600061017d7f0000000000000000000000000000000000000000000000000000000000000000610178868686610b44565b610bc1565b949350505050565b6000606080600061019586610cf7565b67ffffffffffffffff811180156101ab57600080fd5b506040519080825280602002602001820160405280156101d5578160200160208202803683370190505b5092506101e186610cf7565b67ffffffffffffffff811180156101f757600080fd5b50604051908082528060200260200182016040528015610221578160200160208202803683370190505b50915060005b60008060006102358a610d26565b9250925092506000806000806102b86040518060a001604052808873ffffffffffffffffffffffffffffffffffffffff1681526020018973ffffffffffffffffffffffffffffffffffffffff1681526020018f81526020018762ffffff168152602001600073ffffffffffffffffffffffffffffffffffffffff1681525061039f565b9350935093509350828b89815181106102cd57fe5b602002602001019073ffffffffffffffffffffffffffffffffffffffff16908173ffffffffffffffffffffffffffffffffffffffff1681525050818a898151811061031457fe5b63ffffffff90921660209283029190910190910152929b50968201966001909601958b926103418e610d57565b156103565761034f8e610d5f565b9d50610366565b8c9b505050505050505050610372565b50505050505050610227565b92959194509250565b7f000000000000000000000000000000000000000000000000000000000000000081565b60208101518151606083015160009283928392839273ffffffffffffffffffffffffffffffffffffffff808216908416109284926103dd9290610147565b9050866080015173ffffffffffffffffffffffffffffffffffffffff166000141561040b5760408701516000555b60005a90508173ffffffffffffffffffffffffffffffffffffffff1663128acb08308561043b8c60400151610d9a565b6000038c6080015173ffffffffffffffffffffffffffffffffffffffff1660001461046a578c60800151610490565b876104895773fffd8963efd1fc6a506488495d951d5263988d25610490565b6401000276a45b8d602001518e606001518f600001516040516020016104b193929190611de5565b6040516020818303038152906040526040518663ffffffff1660e01b81526004016104e0959493929190611e6c565b6040805180830381600087803b1580156104f957600080fd5b505af1925050508015610547575060408051601f3d9081017fffffffffffffffffffffffffffffffffffffffffffffffffffffffffffffffe016820190925261054491810190611bd3565b60015b6105c4573d808015610575576040519150601f19603f3d011682016040523d82523d6000602084013e61057a565b606091505b505a82039450886080015173ffffffffffffffffffffffffffffffffffffffff16600014156105a857600080555b6105b3818487610dcc565b9750975097509750505050506105ca565b50505050505b9193509193565b7f000000000000000000000000000000000000000000000000000000000000000081565b60208101518151606083015160009283928392839273ffffffffffffffffffffffffffffffffffffffff808216908416109284926106339290610147565b905060005a90508173ffffffffffffffffffffffffffffffffffffffff1663128acb0830856106658c60400151610d9a565b60808d015173ffffffffffffffffffffffffffffffffffffffff161561068f578c608001516106b5565b876106ae5773fffd8963efd1fc6a506488495d951d5263988d256106b5565b6401000276a45b8d600001518e606001518f602001516040516020016106d693929190611de5565b6040516020818303038152906040526040518663ffffffff1660e01b8152600401610705959493929190611e6c565b6040805180830381600087803b15801561071e57600080fd5b505af192505050801561076c575060408051601f3d9081017fffffffffffffffffffffffffffffffffffffffffffffffffffffffffffffffe016820190925261076991810190611bd3565b60015b6105c4573d80801561079a576040519150601f19603f3d011682016040523d82523d6000602084013e61079f565b606091505b505a820394506105b3818487610dcc565b600060608060006107c086610cf7565b67ffffffffffffffff811180156107d657600080fd5b50604051908082528060200260200182016040528015610800578160200160208202803683370190505b50925061080c86610cf7565b67ffffffffffffffff8111801561082257600080fd5b5060405190808252806020026020018201604052801561084c578160200160208202803683370190505b50915060005b60008060006108608a610d26565b9250925092506000806000806108e36040518060a001604052808973ffffffffffffffffffffffffffffffffffffffff1681526020018873ffffffffffffffffffffffffffffffffffffffff1681526020018f81526020018762ffffff168152602001600073ffffffffffffffffffffffffffffffffffffffff168152506105f5565b9350935093509350828b89815181106108f857fe5b602002602001019073ffffffffffffffffffffffffffffffffffffffff16908173ffffffffffffffffffffffffffffffffffffffff1681525050818a898151811061093f57fe5b63ffffffff90921660209283029190910190910152929b50968201966001909601958b9261096c8e610d57565b156103565761097a8e610d5f565b9d5050505050505050610852565b60008313806109975750600082135b6109a057600080fd5b60008060006109ae84610d26565b9250925092506109e07f0000000000000000000000000000000000000000000000000000000000000000848484610ea0565b506000806000808913610a26578573ffffffffffffffffffffffffffffffffffffffff168573ffffffffffffffffffffffffffffffffffffffff1610888a600003610a5b565b8473ffffffffffffffffffffffffffffffffffffffff168673ffffffffffffffffffffffffffffffffffffffff161089896000035b9250925092506000610a6e878787610147565b90506000808273ffffffffffffffffffffffffffffffffffffffff16633850c7bd6040518163ffffffff1660e01b815260040160e06040518083038186803b158015610ab957600080fd5b505afa158015610acd573d6000803e3d6000fd5b505050506040513d601f19601f82011682018060405250810190610af19190611cd0565b5050505050915091508515610b1757604051848152826020820152816040820152606081fd5b60005415610b2d576000548414610b2d57600080fd5b604051858152826020820152816040820152606081fd5b610b4c611a18565b8273ffffffffffffffffffffffffffffffffffffffff168473ffffffffffffffffffffffffffffffffffffffff161115610b84579192915b506040805160608101825273ffffffffffffffffffffffffffffffffffffffff948516815292909316602083015262ffffff169181019190915290565b6000816020015173ffffffffffffffffffffffffffffffffffffffff16826000015173ffffffffffffffffffffffffffffffffffffffff1610610c0357600080fd5b508051602080830151604093840151845173ffffffffffffffffffffffffffffffffffffffff94851681850152939091168385015262ffffff166060808401919091528351808403820181526080840185528051908301207fff0000000000000000000000000000000000000000000000000000000000000060a085015294901b7fffffffffffffffffffffffffffffffffffffffff0000000000000000000000001660a183015260b58201939093527fe3572921be1688dba92df30c6781b8770499ff274d20ae9b325f4242634774fb60d5808301919091528251808303909101815260f5909101909152805191012090565b805160177fffffffffffffffffffffffffffffffffffffffffffffffffffffffffffffffec909101045b919050565b60008080610d348482610ebf565b9250610d41846014610fbf565b9050610d4e846017610ebf565b91509193909250565b516042111590565b8051606090610d949083906017907fffffffffffffffffffffffffffffffffffffffffffffffffffffffffffffffe9016110af565b92915050565b60007f80000000000000000000000000000000000000000000000000000000000000008210610dc857600080fd5b5090565b6000806000806000808773ffffffffffffffffffffffffffffffffffffffff16633850c7bd6040518163ffffffff1660e01b815260040160e06040518083038186803b158015610e1b57600080fd5b505afa158015610e2f573d6000803e3d6000fd5b505050506040513d601f19601f82011682018060405250810190610e539190611cd0565b50939650610e6894508d935061129692505050565b91975095509050610e9073ffffffffffffffffffffffffffffffffffffffff89168383611357565b9350869250505093509350935093565b6000610eb685610eb1868686610b44565b6119af565b95945050505050565b600081826014011015610f3357604080517f08c379a000000000000000000000000000000000000000000000000000000000815260206004820152601260248201527f746f416464726573735f6f766572666c6f770000000000000000000000000000604482015290519081900360640190fd5b8160140183511015610fa657604080517f08c379a000000000000000000000000000000000000000000000000000000000815260206004820152601560248201527f746f416464726573735f6f75744f66426f756e64730000000000000000000000604482015290519081900360640190fd5b5001602001516c01000000000000000000000000900490565b60008182600301101561103357604080517f08c379a000000000000000000000000000000000000000000000000000000000815260206004820152601160248201527f746f55696e7432345f6f766572666c6f77000000000000000000000000000000604482015290519081900360640190fd5b81600301835110156110a657604080517f08c379a000000000000000000000000000000000000000000000000000000000815260206004820152601460248201527f746f55696e7432345f6f75744f66426f756e6473000000000000000000000000604482015290519081900360640190fd5b50016003015190565b60608182601f01101561112357604080517f08c379a000000000000000000000000000000000000000000000000000000000815260206004820152600e60248201527f736c6963655f6f766572666c6f77000000000000000000000000000000000000604482015290519081900360640190fd5b82828401101561119457604080517f08c379a000000000000000000000000000000000000000000000000000000000815260206004820152600e60248201527f736c6963655f6f766572666c6f77000000000000000000000000000000000000604482015290519081900360640190fd5b8183018451101561120657604080517f08c379a000000000000000000000000000000000000000000000000000000000815260206004820152601160248201527f736c6963655f6f75744f66426f756e6473000000000000000000000000000000604482015290519081900360640190fd5b606082158015611225576040519150600082526020820160405261128d565b6040519150601f8416801560200281840101858101878315602002848b0101015b8183101561125e578051835260209283019201611246565b5050858452601f017fffffffffffffffffffffffffffffffffffffffffffffffffffffffffffffffe016604052505b50949350505050565b60008060008351606014611336576044845110156112e9576040517f08c379a00000000000000000000000000000000000000000000000000000000081526004016112e090611ed1565b60405180910390fd5b600484019350838060200190518101906113039190611c44565b6040517f08c379a00000000000000000000000000000000000000000000000000000000081526004016112e09190611ebe565b8380602001905181019061134a9190611d67565b9250925092509193909250565b60008060008060008060008060088b73ffffffffffffffffffffffffffffffffffffffff1663d0c93a7c6040518163ffffffff1660e01b815260040160206040518083038186803b1580156113ab57600080fd5b505afa1580156113bf573d6000803e3d6000fd5b505050506040513d60208110156113d557600080fd5b5051600290810b908c900b816113e757fe5b0560020b901d905060006101008c73ffffffffffffffffffffffffffffffffffffffff1663d0c93a7c6040518163ffffffff1660e01b815260040160206040518083038186803b15801561143a57600080fd5b505afa15801561144e573d6000803e3d6000fd5b505050506040513d602081101561146457600080fd5b5051600290810b908d900b8161147657fe5b0560020b8161148157fe5b079050600060088d73ffffffffffffffffffffffffffffffffffffffff1663d0c93a7c6040518163ffffffff1660e01b815260040160206040518083038186803b1580156114ce57600080fd5b505afa1580156114e2573d6000803e3d6000fd5b505050506040513d60208110156114f857600080fd5b5051600290810b908d900b8161150a57fe5b0560020b901d905060006101008e73ffffffffffffffffffffffffffffffffffffffff1663d0c93a7c6040518163ffffffff1660e01b815260040160206040518083038186803b15801561155d57600080fd5b505afa158015611571573d6000803e3d6000fd5b505050506040513d602081101561158757600080fd5b5051600290810b908e900b8161159957fe5b0560020b816115a457fe5b07905060008160ff166001901b8f73ffffffffffffffffffffffffffffffffffffffff16635339c296856040518263ffffffff1660e01b8152600401808260010b815260200191505060206040518083038186803b15801561160557600080fd5b505afa158015611619573d6000803e3d6000fd5b505050506040513d602081101561162f57600080fd5b5051161180156116c257508d73ffffffffffffffffffffffffffffffffffffffff1663d0c93a7c6040518163ffffffff1660e01b815260040160206040518083038186803b15801561168057600080fd5b505afa158015611694573d6000803e3d6000fd5b505050506040513d60208110156116aa57600080fd5b5051600290810b908d900b816116bc57fe5b0760020b155b80156116d357508b60020b8d60020b135b945060008360ff166001901b8f73ffffffffffffffffffffffffffffffffffffffff16635339c296876040518263ffffffff1660e01b8152600401808260010b815260200191505060206040518083038186803b15801561173357600080fd5b505afa158015611747573d6000803e3d6000fd5b505050506040513d602081101561175d57600080fd5b5051161180156117f057508d73ffffffffffffffffffffffffffffffffffffffff1663d0c93a7c6040518163ffffffff1660e01b815260040160206040518083038186803b1580156117ae57600080fd5b505afa1580156117c2573d6000803e3d6000fd5b505050506040513d60208110156117d857600080fd5b5051600290810b908e900b816117ea57fe5b0760020b155b801561180157508b60020b8d60020b125b95508160010b8460010b128061182d57508160010b8460010b14801561182d57508060ff168360ff1611155b1561184357839950829750819850809650611850565b8199508097508398508296505b50507fffffffffffffffffffffffffffffffffffffffffffffffffffffffffffffffff60ff87161b9150505b8560010b8760010b13611987578560010b8760010b14156118c1577fffffffffffffffffffffffffffffffffffffffffffffffffffffffffffffffff60ff858103161c165b6000818c73ffffffffffffffffffffffffffffffffffffffff16635339c2968a6040518263ffffffff1660e01b8152600401808260010b815260200191505060206040518083038186803b15801561191857600080fd5b505afa15801561192c573d6000803e3d6000fd5b505050506040513d602081101561194257600080fd5b5051169050611950816119df565b61ffff16989098019750506001909501947fffffffffffffffffffffffffffffffffffffffffffffffffffffffffffffffff61187c565b8115611994576001880397505b82156119a1576001880397505b505050505050509392505050565b60006119bb8383610bc1565b90503373ffffffffffffffffffffffffffffffffffffffff821614610d9457600080fd5b6000805b8215610d94577fffffffffffffffffffffffffffffffffffffffffffffffffffffffffffffffff8301909216916001016119e3565b604080516060810182526000808252602082018190529181019190915290565b600082601f830112611a48578081fd5b8135611a5b611a568261200b565b611fe7565b818152846020838601011115611a6f578283fd5b816020850160208301379081016020019190915292915050565b8051600281900b8114610d2157600080fd5b600060a08284031215611aac578081fd5b60405160a0810181811067ffffffffffffffff82111715611ac957fe5b6040529050808235611ada8161207b565b81526020830135611aea8161207b565b602082015260408381013590820152611b0560608401611b37565b60608201526080830135611b188161207b565b6080919091015292915050565b805161ffff81168114610d2157600080fd5b803562ffffff81168114610d2157600080fd5b600080600060608486031215611b5e578283fd5b8335611b698161207b565b92506020840135611b798161207b565b9150611b8760408501611b37565b90509250925092565b60008060408385031215611ba2578182fd5b823567ffffffffffffffff811115611bb8578283fd5b611bc485828601611a38565b95602094909401359450505050565b60008060408385031215611be5578182fd5b505080516020909101519092909150565b600080600060608486031215611c0a578283fd5b8335925060208401359150604084013567ffffffffffffffff811115611c2e578182fd5b611c3a86828701611a38565b9150509250925092565b600060208284031215611c55578081fd5b815167ffffffffffffffff811115611c6b578182fd5b8201601f81018413611c7b578182fd5b8051611c89611a568261200b565b818152856020838501011115611c9d578384fd5b610eb682602083016020860161204b565b600060a08284031215611cbf578081fd5b611cc98383611a9b565b9392505050565b600080600080600080600060e0888a031215611cea578485fd5b8751611cf58161207b565b9650611d0360208901611a89565b9550611d1160408901611b25565b9450611d1f60608901611b25565b9350611d2d60808901611b25565b925060a088015160ff81168114611d42578283fd5b60c08901519092508015158114611d57578182fd5b8091505092959891949750929550565b600080600060608486031215611d7b578081fd5b835192506020840151611d8d8161207b565b9150611b8760408501611a89565b60008151808452611db381602086016020860161204b565b601f017fffffffffffffffffffffffffffffffffffffffffffffffffffffffffffffffe0169290920160200192915050565b606093841b7fffffffffffffffffffffffffffffffffffffffff000000000000000000000000908116825260e89390931b7fffffff0000000000000000000000000000000000000000000000000000000000166014820152921b166017820152602b0190565b73ffffffffffffffffffffffffffffffffffffffff91909116815260200190565b600073ffffffffffffffffffffffffffffffffffffffff8088168352861515602084015285604084015280851660608401525060a06080830152611eb360a0830184611d9b565b979650505050505050565b600060208252611cc96020830184611d9b565b60208082526010908201527f556e6578706563746564206572726f7200000000000000000000000000000000604082015260600190565b600060808201868352602060808185015281875180845260a0860191508289019350845b81811015611f5e57845173ffffffffffffffffffffffffffffffffffffffff1683529383019391830191600101611f2c565b505084810360408601528651808252908201925081870190845b81811015611f9a57825163ffffffff1685529383019391830191600101611f78565b5050505060609290920192909252949350505050565b93845273ffffffffffffffffffffffffffffffffffffffff92909216602084015263ffffffff166040830152606082015260800190565b60405181810167ffffffffffffffff8111828210171561200357fe5b604052919050565b600067ffffffffffffffff82111561201f57fe5b50601f017fffffffffffffffffffffffffffffffffffffffffffffffffffffffffffffffe01660200190565b60005b8381101561206657818101518382015260200161204e565b83811115612075576000848401525b50505050565b73ffffffffffffffffffffffffffffffffffffffff8116811461209d57600080fd5b5056fea164736f6c6343000706000a",
  "linkReferences": {},
  "deployedLinkReferences": {}
}